S01700004763634170706C69636174696F6E332E7372656359
S11300000C9434000C943E000C943E000C943E007E
S11300100C943E000C943E000C943E000C943E0064
S11300200C943E000C943E000C943E000C943E0054
S11300300C943E000C943E000C943E000C943E0044
S11300400C943E000C943E000C943E000C943E0034
S11300500C943E000C943E000C943E000C943E0024
S11300600C943E000C943E0011241FBECFEFD8E048
S1130070DEBFCDBF0E9440000C94B4000C9400007D
S11300808FEF84B98EEF8AB915B840E050E041157E
S1130090510509F065C02FE332E46FE02150304090
S11300A06040E1F700C0000032C081E090E0FC0154
S11300B0022E02C0EE0FFF1F0A94E2F767E070E021
S11300C0621B730B02C0880F991F6A95E2F78E2B8F
S11300D085B98FE392E46FE0815090406040E1F78E
S11300E000C0000048990BC08FE392E44FE08150B8
S11300F090404040E1F700C0000041E050E02F5F35
S11301003F4F02C020E030E02430310574F2411545
S11301105105C1F3BCCF21E030E0082E02C0220F0C
S1130120331F0A94E2F725B96FE322E43FE06150FC
S113013020403040E1F700C0000048990BC04FE375
S113014062E42FE0415060402040E1F700C000002D
S113015040E050E0019702C087E090E09923DCF68C
S10F016041305105C9F393CFF894FFCF50
S9030000FC
